:020000040000FA
:10000000D00700206D020000810200008302000082
:10001000850200008502000085020000000000004B
:100020000000000000000000000000008502000049
:10003000850200000000000085020000850200002B
:100040008502000085020000850200008502000094
:100050008502000085020000850200008502000084
:100060008502000085020000850200008502000074
:100070008502000085020000850200008502000064
:100080008502000085020000850200008502000054
:100090008502000085020000850200008502000044
:1000A0008502000085020000850200008502000034
:1000B0008502000085020000850200008502000024
:1000C0008502000085020000850200008502000014
:1000D0008502000085020000850200008502000004
:1000E0008502000000000000000000008502000002
:1000F00085020000850200008502000085020000E4
:1001000085020000850200008502000085020000D3
:1001100000000000000000008502000085020000D1
:1001200085020000850200008502000085020000B3
:1001300085020000850200008502000085020000A3
:1001400000000000000000000000000000000000AF
:100150008502000085020000850200008502000083
:10016000000000000000000000000000000000008F
:10017000000000000000000000000000000000007F
:10018000000000000000000000000000000000006F
:10019000000000000000000000000000000000005F
:1001A000000000000000000000000000000000004F
:1001B0008502000085020000850200008502000023
:1001C0008502000085020000850200008502000013
:1001D0008502000085020000850200008502000003
:1001E000850200008502000085020000000000007A
:1001F000000000008502000085020000850200006A
:1002000085020000850200000000000000000000E0
:1002100085020000850200008502000085020000C2
:1002200085020000850200008502000085020000B2
:1002300085020000850200008502000085020000A2
:100240008502000085020000850200008502000092
:100250008502000085020000850200008502000082
:100260008502000085020000850200004EF68850DD
:10027000CEF20000016841F47001016000F004B8A2
:10028000FEE7FEE7FEE7000000F002F800F04CF8A1
:100290000AA090E8000C82448344AAF10107DA45E1
:1002A00001D100F041F8AFF2090EBAE80F0013F0E7
:1002B000010F18BFFB1A43F001031847102000007C
:1002C000302000000A4410F8014B14F00F0508BF5D
:1002D00010F8015B240908BF10F8014B6D1E05D012
:1002E00010F8013B6D1E01F8013BF9D1641E03D0EB
:1002F000641E01F8015BFBD19142E4D3704700001A
:100300000023002400250026103A28BF78C1FBD81E
:10031000520728BF30C148BF0B6070471FB501F0BE
:10032000E4FC1FBD10B510BD00F021F81146FFF729
:10033000F5FF00F01FFF00F03FF803B4FFF7F2FFF6
:1003400003BC00F047F800000138FDD17047000001
:1003500002480349014A034B70470000D0060020C1
:10036000D0070020D00600207047704770477546C0
:1003700000F02CF8AE4605006946534620F0070011
:10038000854618B020B5FFF7E3FFBDE820404FF0E9
:1003900000064FF000074FF000084FF0000B21F06F
:1003A0000701AC46ACE8C009ACE8C009ACE8C0093C
:1003B000ACE8C0098D46704710B50446AFF3008025
:1003C0002046BDE81040FFF7B8BF00000048704766
:1003D0006C06002001491820ABBEFEE72600020093
:1003E000704701228A40C260704730B5034632B17F
:1003F000DC684FF001158D4004EA05000FE05C68F1
:1004000001258D4045F4803504EA050000F4803470
:100410002CB140F470204FF480348C40A04330BDA8
:1004200010B50A0C120401F00F040123A3401A4373
:10043000836A1A43826210BD70B51446890045690B
:100440000F268E40B54304F00F068E4035434561BC
:10045000056A0F268E40B54303F003068E403543F0
:10046000056204F00F02062A0CD3092A0AD8951F48
:10047000EA00C56930269640B54304F03006964040
:100480003543C56170BD10B503464C01403423446B
:10049000002002E09C6810C2401CDC6804F48074F8
:1004A0000CB90828F6D310BD026801238B401A430B
:1004B0000260704770B50C466501403528449200D3
:1004C00005680F269640B54303F00F069640354366
:1004D000056085690F269640B543C3F30326964011
:1004E0003543856146680F25954026EA0505C3F327
:1004F0000316964035434560C6690F25954026EAA8
:100500000505C3F3035696403543C56103F47025D2
:1005100075B141690F259540A943C3F30245954044
:10052000294341610569012696403543056104E090
:10053000056901269640B543056170BD024A106009
:10054000024A014B5A6070470C000020003800F04E
:1005500010B50446606800F063FC0320FFF7F4FE6A
:1005600000231A4603212068FFF766FFE0230022DC
:1005700003212068FFF79EFF03212068FFF794FF07
:1005800003212068FFF72DFF10BD10B5044603219D
:100590002046FFF745FF10BD70B505460C462246C4
:1005A00003212846FFF76FFF70BD0000B1FBF2F397
:1005B000B1FBF3FC70B4944588BF5B1CB3F5984F56
:1005C00027D81322B3FBF2FC0CFB02F49C4219D196
:1005D000114B03EB420333F8085C03689BB243F012
:1005E00041040460ACF1010404F03F063543C560EA
:1005F000C4F38314846103600CFB02F0B1FBF0F0E0
:1006000070BC7047521E042ADCD25B1CB3F5984FB5
:10061000D7D970BC00207047101D0000016821F080
:1006200001010160704701210160016A11F4004F6E
:10063000FBD1B02141620021416381630121026A43
:1006400012F4004FFBD10162491C2029F7D90C217B
:1006500041620121026A12F4004FFBD10162491C80
:100660002029F7D940687047B1F5004F04BF4068B2
:100670007047026A12F4004FFBD10822426201F077
:100680003F010162016A11F4004FFBD1704702681B
:10069000114301607047000010B500210E4800F0C2
:1006A00065F80446B4F5004F08D100210A4800F06F
:1006B00020F904460120094908700CE0012C07D1FB
:1006C00001210548FFF7D0FF00200449087002E02F
:1006D00003A000F0EFFB10BD000004401400002058
:1006E000556E65787065637465642043414E206281
:1006F000757320696E746572727570740A000000FB
:100700002DE9F041154A00241368DFF854C0164D56
:1007100003EA0C06134BA6F18057B7F5A02708D0C3
:10072000126802EA0C02A2F1805CBCF5202C06D013
:100730000CE0984209D0A84208BF382406E098424D
:1007400008BF362402D0A84200D13724204600F04A
:1007500013FA2046BDE8F04100F0DCB900E00F409C
:100760000000FF700000044000100440002904BF96
:100770000069704701291CBF00207047D0F8401164
:10078000D0F8440189B241EA004070472DE9FF4F9B
:100790004FF0000A016A11F4004FFBD1D2F800902B
:1007A000B9F5006F06D2117A11F0040F08BF4FF0AF
:1007B000000B01D04FF0010B00274FF093083D468E
:1007C00039463E46BC46052B24BF04B0BDE8F08F39
:1007D000DFE803F003071A0A14004FF480714D019B
:1007E00010E04FF480710FE04FF4005569104FF6A0
:1007F000FF7641F6FF7C4FF0D30805E04FF400553B
:100800004FF490514FF0010A946841F6FF7314F0D1
:10081000080F0CD0BBF1000F08BF0026D2F804C0AF
:100820000EBF03EA8C0C1FFA8CF6CCF30C4C4FF085
:10083000280E3EEA040E08BF4CF4004C4FF0180E90
:100840003EEA040E08BF4CF4804C14F0380F1CBF75
:1008500041F4805148F0400848F02008BBF1000FF7
:1008600007D0C9F30C431FFA89F72B4343F44049DF
:1008700004E003EA89032B4343F40049D56805F0FB
:100880000F030B4314F4007F08BF43F0800314F000
:10089000010F18BF43F4006314F0020F18BF43F4B4
:1008A0008063BAF1000F14D00021D2F810A000F13B
:1008B0003C04002D0DD91AF80120491C8D4204D9A1
:1008C0001AF801B0491C42EA0B2244F8042BA94251
:1008D000F1D3C0F824808662C0F82CC00763C0F84A
:1008E00034908363019901F03F01016204B0BDE8D7
:1008F000F08FC1B1012904BFD0F80011D0F8040174
:1009000016D0022904BFD0F82011D0F824010FD04E
:10091000032911BF0021D0F86011D0F8640141EA29
:1009200000410846704741686FF01F024260F8E7D7
:1009300041EA0041F5E7D0F8003412F0010F14BF8E
:100940000B438B43C0F8003412F0020FD0F8202480
:1009500014BF114322EA0101C0F8201470472DE9A9
:10096000F00301264FF0000C0325C2F3411706FAED
:100970000CF40C4211D0D0F8C48F4FEA4C0405FAA5
:1009800004F928EA0908C0F8C48FD0F8C48F07FA20
:1009900004F448EA0404C0F8C44F0CF1010C0CF054
:1009A000FF0CBCF1080FE2D3D0F800C512F0010F24
:1009B00014BF4CEA010C2CEA010CC0F800C5D0F8B9
:1009C00004C512F0020F14BF4CEA010C2CEA010C12
:1009D000C0F804C5D0F808C512F0040F14BF4CEAE3
:1009E000010C2CEA010CC0F808C5D0F818C512F0AB
:1009F000080F14BF4CEA010C2CEA010CC0F818C512
:100A000012F0100FD0F83C2514BF0A438A43C0F8F7
:100A10003C25D0F80C2513F0010F14BF0A438A437C
:100A2000C0F80C25D0F8102513F0020F14BF0A43AC
:100A30008A43C0F81025D0F8142513F0040F14BF12
:100A40000A438A43C0F81425D0F81C2513F0080F78
:100A500014BF0A438A43C0F81C25D0F8442513F478
:100A6000007F14BF0A438A43C0F84425D0F84025CC
:100A700013F4407F14BF0A438A43C0F84025D0F8DE
:100A80002825002B0CBF114322EA0101C0F82815CC
:100A9000BDE8F003704700000E4AC0F30741D26E74
:100AA00001238B401A420C4A1ABF02EBC10149686C
:100AB00052F83110020AD1F82C354FF00F0C0CFA15
:100AC00002FC00F00F0023EA0C0390401843C1F829
:100AD0002C05704700E00F40C81E000030B50C46E2
:100AE00005460222FFF727FF21462846BDE8304091
:100AF00008236622FFF733BF30B50C4605460222B5
:100B0000FFF719FF21462846BDE83040082301229F
:100B1000FFF725BF1649042804BF086840F4803059
:100B200018D0052804BF086840F4003012D0062809
:100B300012D00F2815D0102838BF7047103800F099
:100B40001F01012202FA01F142090A4850F822006D
:100B50000160704708607047086840F480200860B2
:100B600070474FF0E020016941F0020101617047D8
:100B700024ED00E01420000030B40A4D2A680A4B2E
:100B80009A421CBFD5F800C0002207D05CF8224072
:100B900043F82240521C9B2AF8D32B6043F82010C4
:100BA00030BC704708ED00E00004002070B44B4DED
:100BB0002A6E296F11F0004F14BF01F0700002F08F
:100BC0003000202808BF464818D005DC88B110281E
:100BD00008BF444812D009E0302808BF47F230501F
:100BE0000CD0702808BF4FF4004007D070BC002024
:100BF00070477C203C4B00EA121018584FF0FF332E
:100C000011F0004F02D011F4006F06D001F0004C3B
:100C100002F400645CEA040C36D1D5F860C1D5F862
:100C2000644104F01F06C4F30424641C761C16FB04
:100C300004F46400B0FBF4F0CCF309044443CCF3B7
:100C4000892C00FB0CF0D5F810C004EB902042F486
:100C500080020CF4704CBCF5804F08BF234B13D0BE
:100C600009DCBCF5005F08BF214B0DD0BCF5405F2F
:100C700008BF204B08E0BCF5E04F08BF1E4B03D077
:100C8000BCF5104F08BF1D4B12F4800F21D011F09E
:100C9000004F19D011F0804F09D011F4006F0CD023
:100CA00001F0004C02F400625CEA020205D0C1F3DC
:100CB000C551491CB0FBF1F00BE04000C1F3865177
:100CC000491CB0FBF1F004E0C2F3C351491CB0FB76
:100CD000F1F0834238BF184670BC704700E00F4007
:100CE00000093D000024F4006C200000005A62025C
:100CF00000B4C40480F0FA0240787D01002D310177
:100D0000434B30B4196E1A6F21F4800141F4006135
:100D100042F4006419661C6721EA000212F0010F18
:100D200014D060F0010211409A159A651966D3F843
:100D300050C0D2021CF4807F08D1521E04BF30BCC8
:100D40007047D3F850C01CF4807FF6D021F4FE61C8
:100D500000F4FE621143DFF8BCC024F0700222F000
:100D6000004200EA0C0C4CEA020200F0080C42EAD5
:100D7000CC0219661A6700F4005C21F4005122F4D9
:100D800000524CEA01014CEA02024FF0400CC3F859
:100D900058C012F0004F08BF19661A6718BF1966CD
:100DA00021F00101DFF870C021F0F86100EA0C0CBD
:100DB0004CEA010122F0FC5200F0FC5C4CEA020219
:100DC00010F0804F08BF22F0804209D0DFF84CC0FD
:100DD00022F4800200EA0C0C41F480014CEA020289
:100DE00010F4006F08BF4FF400400AD1D3F868C177
:100DF0001CF0010F01D1401EF8D121F4006122F452
:100E0000006219661A6730BC1020FFF79DBA000017
:100E100000E00F40300000800100C00700004040AB
:100E2000C0F307230749C0B2194401F07043C1F36E
:100E3000130143EA411141EA800040F000700122B1
:100E40000260704700E60F402DE9F04104460D4670
:100E50001646154A52F824004FF08072526C116900
:100E6000884708B9BDE8F081104850F824001049BF
:100E700008600D4A52F824004FF08072526C91695C
:100E800088474FF08070406960232A4631464769A1
:100E900007480068B8474FF080704069C16904484E
:100EA0000068884700BFDDE7041D0000F81C000053
:100EB0001C0000200FB408B503A800900099029808
:100EC00000F006F80020009001B05DF814FB00006F
:100ED0002DE9F34F85B0064612E1002400E0641CC2
:100EE000305D252802D0305D0028F8D121463046FB
:100EF00000F016F9264430782528EDD1761C00251F
:100F00004FF0200B00BF16F8011B382932D014DC3B
:100F100033292AD008DC25296FD0302922D0312965
:100F200021D032296AD11FE034291FD035291ED0A3
:100F300036291DD03729F5D11BE0692935D008DCC9
:100F4000392918D0582972D0632922D06429E9D1CF
:100F50002AE070296CD073293CD0752958D07829A3
:100F6000E0D163E000BF00BF00BF00BF00BF00BF13
:100F700000BF00BF00BF16F8010C302801D105B931
:100F8000834605EB8500450016F8010C3038054412
:100F9000B9E70698006804900698001D06900121A4
:100FA00004A800F0BDF8AAE000BF0698006804900D
:100FB0000698001D06904FF000080498002805DAF6
:100FC0000498404204904FF0010901E04FF00009FD
:100FD0000A2739E0069850F804AB0690002400E098
:100FE000641C1AF804000028FAD12146504600F08B
:100FF00097F8A5420BD92D1B05E076E07AE0012198
:1010000043A000F08DF8281EA5F10105F7D176E088
:101010000698006804900698001D06904FF000089E
:101020000A274FF000090FE001E001E000BF00BF18
:101030000698006804900698001D06904FF000087E
:1010400010274FF0000900BF012401E07C436D1E12
:1010500004FB07F00499884205D804FB07F0B0FBB5
:10106000F7F0A042F2D0B9F1000F00D06D1EB9F137
:10107000000F0AD0BBF1300F07D12D22404608F1F6
:1010800001080DF800204FF00009012D0BD9102D9B
:1010900009D26D1E05E0404608F101080DF800B0C8
:1010A0006D1E002DF7D1B9F1000F05D02D2240465D
:1010B00008F101080DF8002010E00498B0FBF4F0EE
:1010C000B0FBF7F107FB1100124909680A5C4046C2
:1010D00008F101080DF80020B4FBF7F4002CECD166
:1010E0004146684600F01CF809E0701E012100F03E
:1010F00017F804E0052108A000F012F800BF00BFB7
:10110000307800287FF4E9AE07B0BDE8F08F00002A
:1011100020000000F41C00004552524F5200000015
:1011200070B505460E46002413E0285D0A2807D155
:101130004FF0807040690D210268084800689047B0
:10114000295D4FF08070406902680448006890474C
:10115000641CB442E9D3204670BD00001C0000208E
:101160000146002000E0401C014A9042FBDB704732
:1011700020A107002DED088B86B06C466548FFF76F
:10118000BFFD6548FFF74CFE6448FFF749FE0120AC
:10119000FFF782FC40F20140FFF77EFC03214FF095
:1011A0004020FFF7A9FCFFF701FD064632464FF449
:1011B000E1310020FFF748FE5748001DFFF730FEE1
:1011C0005748FFF769FC5748FFF766FC302156483F
:1011D000FFF784FC5548FFF723FE5548FFF723FA35
:1011E000FFF7E4FC0646534A31465148FFF7DEF963
:1011F00051494F48FFF784FA0E214D48FFF747FA4F
:101200003720FFF787FC4A48FFF708FA4B494C485C
:10121000FFF794F94B48FFF79BF94D200090012010
:101220000190002002900120039004200490059476
:10123000002500BF6DE04248FFF7A7F900BF00227C
:1012400003213F48FFF7D1F80028F8D003213C489C
:10125000FFF7C7F83C493A48FFF79EF93A4890ED46
:10126000000AB8EE400A10EE101A084600F0CCFC56
:1012700041EC1B0B9FED350B53EC102B00F0D0FA1B
:1012800041EC1A0B9FED330B53EC102B00F042F99D
:1012900041EC190B9FED310B53EC102B00F0BEFB12
:1012A00041EC180B00F08EFA2E49086008460068E1
:1012B00000EBC000A0300521B0FBF1F02A49086026
:1012C000084602682748016828A0FFF7F3FD254873
:1012D0000078207023480078607022480078A07061
:1012E00020480078E070A3786278217827A0FFF783
:1012F000E1FD002301AA01210D48FFF747FA642010
:10130000FFF72EFF2A48007810B12AA0FFF7D2FD80
:101310006D1C90E74005C001000800F0001800F0C7
:10132000081004000814040000400240003400F0DB
:101330000000044020A1070099060000003800F0DA
:10134000008003400C000020080000200000000086
:1013500000F06E40000000000000B04000000000FF
:1013600000706240000000200400002054656D7091
:1013700065726174757265203D202533642A4320AF
:101380006F72202533642A460D0A000053656E648F
:10139000696E6720636F6C6F757209723A202564FD
:1013A00009673A20256409623A2025640A00000092
:1013B0001400002043414E20427573204572726F25
:1013C000720A000010B591EA030F48BF83F0004392
:1013D00000F13883841A71EB030C05D2121943EB28
:1013E0000C03001B61EB0C01DFF824E14FEA115400
:1013F000A4EB135C1EEA430F18BF9EEA445F73D050
:1014000023EA0E03DCF1200E21EA045143F4801399
:1014100032D322FA0CFE10EB0E0023FA0CFE41EB45
:101420000E01CCF1200E03FA0EFE10EB0E0051F16E
:101430000001B1F5801FCCF1200E32D201EB045136
:1014400012FA0EF2BDE8104058BF7047401C38BF7A
:101450005FEA420218BF7047002814BF20F0010065
:1014600041F100014FEA410313F5001F38BF7047F7
:10147000A1F1C04100F0CCBA012A43EB0302ACF168
:10148000200CDCF11F0E32BF4FF0000E23FA0CF3DC
:1014900010EB030041EB0451B4EB115FD0D0A1EB92
:1014A000045101F5801149085FEA300001EB045155
:1014B0000ED350F1000038BF12FA0EFE08D1BDE87D
:1014C0001040C9E7401C38BF5FEA4202CAD1C3E7F7
:1014D000BDE810404FEA410313F5001F38BF7047C5
:1014E000A1F1C04100F094BA9EEA445F08D011EA2D
:1014F0005E0FBDE8104004BF01F0004100207047BE
:10150000BDE8104070B500F035FA00BF64FBBE3E88
:101510000000E0FF2DE9C04130B4DFF8A0C23CEA92
:10152000111418BF3CEA131400F0EC8081EA0305A3
:101530001CEA111444EAD57418BF1CEA131500F014
:10154000C780A4EB05044FF0004545EAC12145EAF8
:10155000C32341EA505143EA525304F17F74994244
:1015600004F500344FEAC0204FEAC22208BF90427F
:1015700000F09C804FEA13650FF24016765D4FEA4B
:10158000134506FB05F7C7F1807706FB07F74FEA1F
:10159000D737A7FB03687642C8F58038A7FB06CE8D
:1015A00038BFA8F1010807FB08E64FF0000EA6FBC4
:1015B000028CE6FB03CEDCF1000CCEF1004E38BF0E
:1015C000AEF1010EA6FB0C584FF000074FF00005DE
:1015D000E6FB0E87A1FB08C6A0FB07CE16EB0E06A6
:1015E00045F10005E1FB076515F1E04E7EBFA4F56E
:1015F00080345FEA46066D4116F1800745F100052B
:101600004FEA17274FEA066647EA0567A6F1DE4666
:10161000B6F1805F4FEA15251FD9384624F0010C3A
:1016200005EBC471BCF1FE6F01EB0C1102D8F0BCEC
:10163000BDE8008124425CBF01F5801E9EEAC47FA4
:1016400002D4F0BCBDE80081244238D4F0BCA1F142
:10165000C041BDE8004100F0DBB94FEAD22242EAC6
:1016600043524FEAD323A7FB02864FEAD02040EA39
:10167000415007FB03661EEA0E0F4FEAD12105FB1E
:10168000026658BFA6EB0056B6EB00564FEA520E64
:101690004EEAC37E18EB0E0E56EB530EBDD518EB7B
:1016A00002085E417F1C55F10005B6E74FF4801536
:1016B0004FF000074FF000064FF00008ADE7F0BC18
:1016C0004FF0000001F1C04101F00041BDE8008190
:1016D00011EA0C1F0CEA131500D00CE013EA0C1FE2
:1016E00000F025804FF00000F0BC81EA030101F01A
:1016F0000041BDE80081F0BCBDE8004181EA030182
:1017000000F086B9F0BCBDE8004170B500F032F9D8
:10171000097EFC3E00F007B881EA03014FF00000AB
:1017200001F00041704781EA030100F071B9F0BC9B
:10173000BDE800414FF0000021497047FFFDFBF973
:10174000F7F5F4F2F0EEEDEBE9E8E6E4E3E1E0DEF4
:10175000DDDBDAD8D7D5D4D3D1D0CFCDCCCBCAC866
:10176000C7C6C5C4C2C1C0BFBEBDBCBBBAB9B8B78D
:10177000B6B5B4B3B2B1B0AFAEADACABAAA9A8A880
:10178000A7A6A5A4A3A3A2A1A09F9F9E9D9C9C9B4E
:101790009A999998979796959594939392919190F9
:1017A0008F8F8E8E8D8C8C8B8B8A8989888887878A
:1017B0008685858484838382828181800000FF07FF
:1017C0000000F87F4FEA1153A3F58063D3F11E03A5
:1017D000A8BFD3F1200C08DB4FF0004242EAC1223F
:1017E00052EA505232FA03F0704709420BD4102BE0
:1017F000C4BF0020704703F5787CBCF1FF3F05D0E3
:101800004FF0FF3070474FF00000704770B500F0A8
:10181000B1F800BF4992248000207047F0E7000033
:10182000DFF848C170B51CEA111E1EBF1CEA131573
:101830009EEA0C0F95EA0C0F00F06F8081EA03041A
:1018400023EA4C134EEAD47E21EA4C1141F4801174
:1018500043F48013AE44A1FB024CA0FB0365AEF140
:101860007F7E361955EB0C05A1FB034C4CF10003B0
:10187000A0FB021C16EB0C06654153F10003094264
:1018800018BF46F0010613F4007F0BD14FEA033175
:101890004FEA0530340341EA155140EA16506FF023
:1018A00003020AE04FEAC3214FEAC520F40241EAED
:1018B000555140EA56506FF0020202EB2E4201EB06
:1018C000025585EACE710AD05FEA440C18BF24F0B5
:1018D000004450F1000041F1000120EAD47040F2D0
:1018E000FE7C624500D270BDA84214BF4FF0804418
:1018F0004FF04044002E08BF0024BEF1806FA8BF07
:10190000A1F1C041BDE8704080F282804FF000003C
:1019100001F1C04101F0004170479EEA0C0F0CEA52
:10192000131518BF95EA0C0F06D04FF0000081EA9E
:10193000030E0EF0004170BD00F01CF88900013E5E
:1019400000F007B800F009B84FEA430C5FEA5C5CAE
:1019500008D081EA030100F05BB84FEA410C5FEA6E
:101960005C5CF6D14FF00000014970470000FF07B2
:101970000000F87F0EF1020E2EF0030E5EF8046BED
:10198000364205D4012A43EB030515F5001F12D892
:10199000012841EB010C1CF5001F0CD80ED14FEAB9
:1019A000D17C15F5001F0CEB4C0C0CF1020C08BFA0
:1019B0004CEBD37C04E04FF0080C01E04FEAD37C01
:1019C0000CEB4C0526FA05F606F00706B6F1040CFA
:1019D00006D20EEB860CBDE870404CF0010C60475F
:1019E000DFE80CF0090B02024FF000414FF000005D
:1019F000A1F5002170BD19461046012851EB0104E4
:101A000018BFD4F5001484BF002001F0004170BD60
:101A10000808A0F500114FEA3101704791EA030F61
:101A200010B581F000413FF5D5AC83F0004300F0E4
:101A300009B8000010B591EA030F48BF83F00043D6
:101A40003FF5C8AC841A71EB030C07D212198CF065
:101A5000004C43EB0C03001B61EB0C01DFF8A4E12D
:101A60004FEA1154A4EB135C1EEA430F18BF9EEA21
:101A7000445F00F0B08023EA6E03524221EA045131
:101A8000C3EB6E0338BF5B1EDCF1200E25D322FAB8
:101A90000CFE10EB0E0043FA0CFE41EB0E01CCF1F4
:101AA000200E03FA0EFE10EB0E0051F10001CCF1F6
:101AB000200E29D412FA0EF201EB0451BDE81040B9
:101AC00058BF7047401C1CBFB2F1004F7047002840
:101AD0000CBF491C20F00100704712EB020E43EBD3
:101AE000030218BF4FF0010E4EEA4202ACF1200C87
:101AF000DCF11E0E54D943FA0CFE10EB0E0051F12E
:101B0000FF31CCF11E0ED5D50EF1010E12FA0EFEEC
:101B1000404141EB010101EB445C5FEA5C5C10D9A0
:101B200010EBDE7001EB045138BFBEF1004FBDE891
:101B3000104018BF704700280CBF491C20F001005E
:101B4000704730D24FEAD42C11F5001124F4006410
:101B50001BD0B1FA81F20B3AA41AA41ED2F12003D1
:101B6000914030FA03F31943904001EBCC71002C03
:101B700001EB0451BDE81040A8BF704701F1C0411E
:101B80004FF0000001F000417047B0FA80F310FA06
:101B900003F100D110BDE41A173C4805C90AE4E777
:101BA00001EB045110BD491001EB0451BDE8104098
:101BB0004FEA300002E04FF0000170474A0008BFD2
:101BC0000042F8D0B2F5001F28BF704701F0004175
:101BD0004FF0000070479EEA445F07D011EA5E0FA5
:101BE000BDE8104004BF002100207047BDE8104050
:101BF00070B5FFF7BFFE00BF40DFF63E83F0004147
:101C0000104670470000E0FF43004FEAD30C4FEA54
:101C10003C0C43401FBF40070CF1605113F0FE4FD6
:101C200070471CF0006F03D100200CF0004170479A
:101C30000CF0004343EA507010B540EACC0000F0CD
:101C40000EF800BF000000924FEA0001FFF7E0BE6F
:101C50004FF000414FF00000A1F5002170470EF158
:101C6000020E2EF0030E5EF8044B244204D44FEA19
:101C70004102B2F17F4F11D84FEA4003B3F17F4FD9
:101C80000CD80ED14FEAD07CB2F17F4F0CEB4C0C4C
:101C90000CF1020C08BF4CEBD17C04E04FF0080CB7
:101CA00001E04FEAD17C0CEB4C0324FA03F404F07E
:101CB0000704B4F1040C06D20EEB840CBDE810400E
:101CC0004CF0010C6047DFE80CF0070802024FF00F
:101CD0000040A0F5800010BD0846420018BFD2F1B8
:101CE000807288BF00F0004010BD4FF04070E1EE00
:101CF000100A7047B822000000C0004000D0004029
:101D000000E00040001800F0011800F0021800F098
:101D1000000100024012401380238024C034C035EB
:101D2000C045C046C056C057C067C068C078C079BB
:101D3000004000401000000000800540100000003E
:101D4000005000401100000000900540110000000C
:101D5000006000401200000000A0054012000000DA
:101D6000007000401300000000B0054013000000A8
:101D7000004002401400000000C0054014000000B4
:101D8000005002402E00000000D005402E00000050
:101D9000006002402F00000000E005402F0000001E
:101DA000007002403000000000F0054030000000EC
:101DB00000D003404600000000000640460000003E
:101DC00000100640470000000020064048000000C8
:101DD000003006407F000000004006408000000008
:101DE0000050064084000000006006408C000000A7
:101DF000004000401000000000800540100000007E
:101E0000005000401100000000900540110000004B
:101E1000006000401200000000A005401200000019
:101E2000007000401300000000B0054013000000E7
:101E3000004002401400000000C0054014000000F3
:101E4000005002402E00000000D005402E0000008F
:101E5000006002402F00000000E005402F0000005D
:101E6000007002403000000000F00540300000002B
:101E700000D0034043000000000006404300000083
:101E8000001006404400000000200640450000000D
:101E90000030064058000000004006405900000095
:101EA000005006405C000000006006406400000036
:101EB000007006406C000000008006406D000000CD
:101EC000009006407F000000004000400080054078
:101ED00000500040009005400060004000A0054018
:101EE0000070004000B005400040024000C00540C6
:101EF0000050024000D005400060024000E0054074
:101F00000070024000F0054000D003400000064091
:101F10000010064000100640002006400020064049
:101F200000300640003006400040064000400640B9
:101F30000050064000500640006006400060064029
:101F40000070064000700640008006400080064099
:101F500000900640009006400007000000060000C8
:101F60000005000000040000000300000002000063
:101F700000010000000000000000000018ED00E07B
:101F80001CED00E020ED00E000E400E004E400E0EF
:101F900008E400E00CE400E010E400E014E400E0F9
:101FA00018E400E01CE400E020E400E024E400E0A9
:101FB00028E400E02CE400E030E400E034E400E059
:101FC00038E400E03CE400E040E400E044E400E009
:101FD00048E400E04CE400E050E400E054E400E0B9
:101FE00058E400E05CE400E060E400E064E400E069
:101FF00068E400E06CE400E070E400E074E400E019
:1020000078E400E07CE400E080E400E084E400E0C8
:1020100088E400E000E100E004E100E008E100E025
:102020000CE100E010E100E080E100E084E100E08C
:1020300088E100E08CE100E090E100E000E200E0F7
:1020400004E200E008E200E00CE200E010E200E060
:1020500080E200E084E200E088E200E08CE200E060
:1020600090E200E000688909001C4E0E40420F001B
:1020700000201C0080841E0000802500999E3600F0
:102080000040380000093D0000803E0000004B0089
:10209000404B4C0000204E00808D5B0000C05D0076
:1020A0000080700000127A0000007D008096980089
:1020B000001BB7000080BB00C0E8CE00647ADA00E5
:1020C0000024F4000000FA0080A81201002D310164
:1020D00000366E0140787D014000000000000000E5
:1020E000000100003E0008000000000000010000A8
:1020F000A0000000020000000001000034540100B4
:1021000000000000000100002B700600000000002D
:102110000001000028000000000000000001000095
:102120002700010000000000000100002000000066
:10213000000000000001000050000000020000004C
:10214000000100001AAC00000000000000010000C7
:102150001794090000000000000100001698050017
:10216000000000000001000014000000000000005A
:1021700000010000138008000000000000010000C2
:10218000A000000008000000000100001000000096
:102190000000000000010000280000000200000014
:1021A00000010000400000000400000000010000E9
:1021B0006000000000000000000100005D000C0055
:1021C00000000000000100005000000000000000BE
:1021D000000100004E0002000000000000010000AD
:1021E00041AC010000000000000100003C000000C4
:1021F00000000000000100003A800900000000001B
:10220000000100003000000000000000000100009C
:10221000280000000000000000010000270001006D
:102220000000000000010000236006000000000024
:102230000001000021600800000000000001000013
:102240001E00000000000000000100001DC004008E
:10225000000000000001000050000000020000002B
:102260000001000018000000000000000001000054
:1022700014000000000000000001000060000000E9
:1022800004000000000100000024F40030003000D1
:10229000005A62029100910000879303D200D2009D
:1022A00000B4C4041301130100E1F5055401540105
:1022B000000E27079501950130313233343536371A
:1022C000383961626364656600000000EC2200003A
:1022D000000000206C060000C4020000FC22000088
:1022E0006C060020640100000003000001FF01FFF4
:0C22F00001FF01FF01FF01FF0179000068
:040000050000026D88
:00000001FF
